:100000000C9466000C948E000C948E000C948E0060
:100010000C948E000C948E000C948E000C948E0028
:100020000C948E000C948E000C948E000C9497020D
:100030000C948E000C948E000C948E000C948E0008
:100040000C9448050C948E000C94AA070C94DC07C1
:100050000C948E000C948E000C948E000C948E00E8
:100060000C946A010C948E0046414C434F4E5F4FF6
:100070004E00000000080002010000030407000019
:10008000000000000000010204081020408001026E
:1000900004081020010204081020040404040404CD
:1000A000040402020202020203030303030300002A
:1000B0000000250028002B0000000000240027007D
:1000C0002A009E003D010A040C08A20011241FBE54
:1000D000CFEFD8E0DEBFCDBF11E0A0E0B1E0E6E2B7
:1000E000F2E102C005900D92AC32B107D9F726E0DB
:1000F000ACE2B1E001C01D92A632B207E1F710E018
:10010000CAECD0E004C02297FE010E940209C23C62
:10011000D107C9F70E9450080C9406090C940000FE
:1001200089E895E090935704809356048CE291E01F
:100130000C945D038CE291E00C94A3038CE291E0BB
:100140000C9416048CE291E00C94170480918704BF
:1001500090E020918804821B9109089520918804E1
:1001600080918704281750F4E22FF0E0E757FB4F07
:10017000808190E02F5F2093880408958FEF9FEF98
:100180000895E091880480918704E81730F4F0E046
:10019000E757FB4F808190E008958FEF9FEF089520
:1001A0000895CF92DF92EF92FF920F931F93CF9318
:1001B000DF937C01CB018A0120916404222389F022
:1001C000EB016B01C40ED51ECC15DD0569F06991FC
:1001D000D701ED91FC910190F081E02DC7010995C7
:1001E000F3CF642F0E944101C801DF91CF911F918D
:1001F0000F91FF90EF90DF90CF900895CF93DF9312
:100200001F92CDB7DEB76983209164042223D1F019
:1002100020916504203240F021E030E0FC0133837E
:10022000228380E090E015C080916604E82FF0E022
:10023000E959FB4F998190838F5F80936604809387
:10024000650405C061E0CE0101960E94410181E094
:1002500090E00F90DF91CF910895FC0113821282FC
:1002600048EE53E060E070E0448355836683778313
:100270008FE091E091838083089588E594E00C9469
:100280002D01613298F420911605243089F4609391
:10029000CB04FC018DEC94E0DC012A2F281B2617EF
:1002A00018F421912D93F9CF80E0089581E008950D
:1002B00082E0089585ED8093BC008091BC0084FDB0
:1002C000FCCF10921605089585EC8093BC00109227
:1002D000160508951F920F920FB60F9211242F93B7
:1002E0003F934F935F936F937F938F939F93AF93BE
:1002F000BF93EF93FF938091B900887F803609F414
:100300009CC068F5883209F45BC090F4803109F430
:1003100054C038F4882309F4F5C0883009F44DC07E
:10032000F5C0883109F44CC0803209F45DC0EEC0DC
:10033000803409F468C048F4803309F455C0883328
:1003400009F0E4C08093A904A8C0803509F44FC027
:10035000883509F45DC0883409F0D8C0D5C0883923
:1003600009F4C6C0A8F4883709F467C038F48836A1
:1003700009F463C0803709F460C0C8C0883809F444
:10038000B7C0803909F45FC0803809F0BFC05BC0D6
:10039000803B09F485C038F4803A09F466C0883A95
:1003A00009F47EC0B3C0803C09F4A6C0883C09F4BF
:1003B000A3C0883B09F489C0A9C08091150510C06D
:1003C0009091EE048091ED04981770F5E091EE04A1
:1003D00081E08E0F8093EE04F0E0E151FB4F8081CD
:1003E0008093BB0085EC85C08093A9048DC0E0910B
:1003F000EE0481E08E0F8093EE048091BB00F0E06C
:10040000E151FB4F80839091EE048091ED046DC02B
:10041000E091EE0481E08E0F8093EE048091BB00AA
:10042000F0E0E151FB4F80838091140581116CC095
:1004300081E08093130584EA60C083E08093160511
:100440001092AA04CFCF8091AA04803208F050C045
:10045000E091AA0481E08E0F8093AA048091BB00F2
:10046000F0E0E555FB4F8083BDCF8091AA04803238
:1004700030F4E091AA04F0E0E555FB4F10820E94B1
:100480005A016091AA0470E0E0910F05F091100507
:100490008BEA94E009951092AA040E94640136C088
:1004A00084E0809316051092CC041092CB04E09166
:1004B0001105F091120509958091CB04811105C0B9
:1004C00081E08093CB041092CD04E091CC0481E0D4
:1004D0008E0F8093CC04F0E0E353FB4F8081809338
:1004E000BB009091CC048091CB04981708F47ACF8C
:1004F00085E88093BC000AC085EC8093BC00109214
:10050000160504C01092A9040E945A01FF91EF91B0
:10051000BF91AF919F918F917F916F915F914F911B
:100520003F912F910F900FBE0F901F9018951F9223
:100530000F920FB60F9211242F933F934F935F9317
:100540006F937F938F939F93AF93BF93EF93FF939B
:10055000109285001092840080910A01882389F00E
:1005600060E085E00E942F0680911A0590911B059E
:10057000880F991F909389008093880010920A0138
:1005800047C061E085E00E942F0681E080930A0168
:100590006091190540911A0550911B056830C8F00B
:1005A000109219052091170530911805240F351F59
:1005B00080911C0590911D05821B930B880F991F3C
:1005C0009093890080938800109218051092170567
:1005D0001FC0E62FF0E0EE0FFF1FE25EFA4F8081B2
:1005E0009181841B950B880F991F909389008093AC
:1005F0008800809117059091180520813181820F24
:10060000931F90931805809317056F5F60931905EA
:10061000FF91EF91BF91AF919F918F917F916F91DA
:100620005F914F913F912F910F900FBE0F901F90B0
:1006300018950F931F93CF93DF93EC018B01EEE19D
:10064000F5E08CED95E08193919325E0EE32F20791
:10065000D1F761E085E00E94F60561E085E00E9447
:100660002F06D0931D05C0931C0510931B05009306
:100670001A05F89410928000109281001092850063
:100680001092840084E690E0909389008093880023
:1006900080918100886080938100809181008260D8
:1006A0008093810080916F00826080936F007894C6
:1006B000DF91CF911F910F910895DF92EF92FF92FA
:1006C0000F931F93CF93DF93EC01FC01E95DFC4F87
:1006D000DD24D394D0823196D0827C0187EDE81A54
:1006E0008CEFF80AF70110823497118210828E0184
:1006F000065D1C4F26E040E052EC61E070E0F8013E
:10070000808191810E944807F701D08268E670E0FD
:10071000F801808191810E94C70864EF71E084EE46
:1007200097E50E941903CE010E941804F801808108
:10073000918199838883DF91CF911F910F91FF90D1
:10074000EF90DF900895EF92FF920F931F93CF9356
:10075000DF93EC017C0147EDE41A4CEFF40AF7015A
:10076000808181110FC08E010B5D1C4FF8018081CB
:1007700091818A30910589F184369105D9F10197EB
:10078000E1F523C0CE010E94D204882361F39E01CB
:10079000EEE1F5E0D901A35FBE4F8D919C91883EBB
:1007A00043E0940738F0813D47E0940728F080ED5E
:1007B00097E002C088EE93E0819391932E5F3F4FC4
:1007C00085E0EE32F80731F7CECFF701808188233C
:1007D000A1F0CE010E94330410C0F7018081811185
:1007E0000CC0C65DDC4F89E895E09983888381E081
:1007F000808303C0F80111821082F8018081918109
:10080000019691838083DF91CF911F910F91FF908B
:10081000EF9008958EE295E00C940E040895DC01AB
:10082000ED91FC910190F081E02D099408950895D7
:1008300020E030E04CED55E0FC01E20FF31FE35FF8
:10084000FE4F518340832E5F3F4F20313105A1F78A
:10085000FC01E45FFE4F28E02083FC011282E35E8E
:10086000FE4F10820895CF93DF93EC016EEF70E09E
:10087000888199810E940F0461E070E088819981EC
:100880000E940F0461E070E0888199810E940F044A
:1008900088819981DC01ED91FC91C65FDE4FA881D2
:1008A000B9810190F081E02D6C91DF91CF91099495
:1008B000EF92FF920F931F93CF93DF93FC01ED5DB7
:1008C000FE4F2081222319F0213021F164C0FC0168
:1008D000EC5DFE4F208178973081393008F028E0B8
:1008E000EC0100E010E0E22EF12C22960E151F051F
:1008F0000CF051C0FE01ED5DFE4F608131968081AC
:100900000E94D908FE01E55FFE4F918380830F5F4F
:100910001F4FEBCFFC01EC5DFE4F20812730D8F557
:100920007A97A081B1812C930190F081E02D2081F4
:10093000223091F4FC01E85FFE4F0190F081E02D40
:1009400047AD9C01240F311D240F311DD901A35F38
:10095000BE4FE65BFF4F13C02130A9F4FC01E85FF6
:10096000FE4F0190F081E02D47AD9C01240F311D19
:10097000240F311DD901A35FBE4FE05CFF4F4081C2
:1009800051814D935C93DF91CF911F910F91FF9017
:10099000EF900C943304DF91CF911F910F91FF9052
:1009A000EF9008958F929F92AF92BF92CF92DF9275
:1009B000EF92FF920F931F93CF93DF93EC016C01A3
:1009C00083EEC81A8EEFD80A4E01AFED8A1AAEEF49
:1009D0009A0A7E01B1EEEB1ABEEFFB0AAA24A39499
:1009E000B12C8E01025E1E4F88819981DC01ED9150
:1009F000FC910480F581E02D099518161906D4F5AF
:100A000088819981DC01ED91FC910680F781E02DD0
:100A10000995F6019081992311F1D7012D913C910F
:100A20001197FE01E20FF31FEF5DFE4F80832F5FF2
:100A30003F4F2D933C932230310519F4F801808308
:100A4000D3CFD8018C9190E003962817390761F62F
:100A5000CE010E945804F601108281E00CC08E3F46
:100A600019F68083F4018083D701AD92BC92F8011E
:100A70001082BACF80E0DF91CF911F910F91FF904C
:100A8000EF90DF90CF90BF90AF909F908F900895A0
:100A90001F920F920FB60F9211242F933F938F93B3
:100AA0009F93AF93BF938091810590918205A09110
:100AB0008305B09184053091800523E0230F2D3705
:100AC00020F40196A11DB11D05C026E8230F029652
:100AD000A11DB11D2093800580938105909382050F
:100AE000A0938305B0938405809185059091860538
:100AF000A0918705B09188050196A11DB11D809335
:100B0000850590938605A0938705B0938805BF91CE
:100B1000AF919F918F913F912F910F900FBE0F90AA
:100B20001F901895789484B5826084BD84B58160E7
:100B300084BD85B5826085BD85B5816085BDEEE6E5
:100B4000F0E0808181608083E1E8F0E010828081C4
:100B500082608083808181608083E0E8F0E0808132
:100B600081608083E1EBF0E0808184608083E0EB52
:100B7000F0E0808181608083EAE7F0E0808184603A
:100B80008083808182608083808181608083808196
:100B9000806880831092C1000895833081F028F42A
:100BA000813099F08230A1F008958730A9F0883023
:100BB000B9F08430D1F4809180008F7D03C08091A2
:100BC00080008F7780938000089584B58F7702C06E
:100BD00084B58F7D84BD08958091B0008F7703C068
:100BE0008091B0008F7D8093B0000895CF93DF9304
:100BF00090E0FC01EA57FF4F2491FC01E656FF4FBD
:100C00008491882349F190E0880F991FFC01E854F2
:100C1000FF4FA591B49182559F4FFC01C591D4918E
:100C20009FB7611108C0F8948C91209582238C9312
:100C3000888182230AC0623051F4F8948C91322F5B
:100C4000309583238C938881822B888304C0F89409
:100C50008C91822B8C939FBFDF91CF9108950F933E
:100C60001F93CF93DF931F92CDB7DEB7282F30E0CD
:100C7000F901EE58FF4F8491F901EA57FF4F1491A3
:100C8000F901E656FF4F04910023C9F0882321F0B3
:100C900069830E94CD056981E02FF0E0EE0FFF1F10
:100CA000E255FF4FA591B4919FB7F8948C916111D3
:100CB00003C01095812301C0812B8C939FBF0F909F
:100CC000DF91CF911F910F910895FC01818D228DAD
:100CD00090E0805C9F4F821B91098F739927089544
:100CE000FC01918D828D981731F0828DE80FF11DF6
:100CF000858D90E008958FEF9FEF0895FC01918D11
:100D0000828D981761F0828DDF01A80FB11D5D966D
:100D10008C91928D9F5F9F73928F90E008958FEFDB
:100D20009FEF089582E098E0892B49F080E090E001
:100D3000892B29F00E94020881110C94000008956B
:100D4000FC01848DDF01A80FB11DA35ABF4F2C9168
:100D5000848D90E001968F739927848FA689B78937
:100D60002C93A089B1898C9180648C93938D848D10
:100D7000981306C00288F389E02D80818F7D8083DF
:100D80000895CF93DF93EC01888D8823C9F0EA8919
:100D9000FB89808185FD05C0A889B9898C9186FD74
:100DA0000FC00FB607FCF5CF808185FFF2CFA88971
:100DB000B9898C9185FFEDCFCE010E94A006E7CFC7
:100DC000DF91CF910895CF92DF92FF920F931F93FF
:100DD000CF93DF931F92CDB7DEB76C01DC015B963A
:100DE0009C915B975C968C915C97981307C050968A
:100DF000ED91FC915197808185FD32C0F601038D04
:100E000010E00F5F1F4F0F731127F02EF601848D36
:100E1000F81211C00FB607FCF9CFD6015096ED912C
:100E2000FC915197808185FFF1CFC60169830E94B3
:100E3000A0066981EBCF838DE80FF11DE35AFF4FC8
:100E40006083D6015B960C935B975296ED91FC9173
:100E5000539780818062808381E058968C930DC087
:100E6000D6015696ED91FC91579760835096ED917F
:100E7000FC91519780818064808381E090E00F90A5
:100E8000DF91CF911F910F91FF90DF90CF90089548
:100E9000BF92CF92DF92EF92FF92CF93DF93EC015C
:100EA0006A017B01B22EE889F98982E080834115CD
:100EB00081EE580761057105A1F060E079E08DE3EE
:100EC00090E0A70196010E94DE08215031094109F6
:100ED00051095695479537952795211580E1380793
:100EE00098F0E889F989108260E874E88EE190E072
:100EF000A70196010E94DE082150310941095109DC
:100F00005695479537952795EC85FD853083EE8579
:100F1000FF852083188EEC89FD89B082EA89FB89E0
:100F2000808180618083EA89FB89808188608083F9
:100F3000EA89FB89808180688083EA89FB898081D6
:100F40008F7D8083DF91CF91FF90EF90DF90CF90E6
:100F5000BF9008951F920F920FB60F9211242F93F6
:100F60008F939F93EF93FF93E0919905F0919A05EA
:100F70008081E0919F05F091A00582FD12C09081D3
:100F80008091A2058F5F8F732091A305821751F086
:100F9000E091A205F0E0E757FA4F958F8093A20504
:100FA00001C08081FF91EF919F918F912F910F90C0
:100FB0000FBE0F901F9018951F920F920FB60F92B1
:100FC00011242F933F934F935F936F937F938F934E
:100FD0009F93AF93BF93EF93FF9389E895E00E94AF
:100FE000A006FF91EF91BF91AF919F918F917F915B
:100FF0006F915F914F913F912F910F900FBE0F9086
:101000001F90189589E895E00E94650621E0892BDC
:1010100009F420E0822F089510928C0510928B0520
:1010200088EE93E0A0E0B0E080938D0590938E056C
:10103000A0938F05B09390058FE191E090938A057E
:101040008093890585EC90E09093960580939505B3
:1010500084EC90E0909398058093970580EC90E065
:1010600090939A058093990581EC90E090939C056C
:1010700080939B0582EC90E090939E0580939D0564
:1010800086EC90E09093A00580939F051092A205B6
:101090001092A3051092A4051092A5050895089535
:1010A0000E9492050E944F080E949000C2E9D6E07B
:1010B0000E949A002097E1F30E949206F9CFCF9206
:1010C000DF92EF92FF920F931F93CF93DF936C0108
:1010D0007A01EB01E60EF71E00E010E0CE15DF0509
:1010E00061F06991D601ED91FC910190F081E02DC4
:1010F000C6010995080F191FF1CFC801DF91CF91E3
:101100001F910F91FF90EF90DF90CF900895EF9295
:10111000FF920F931F93CF93DF938C01FB01C0E0ED
:10112000D0E064917F018FEFE81AF80A662361F03E
:10113000D801ED91FC910190F081E02DC801099555
:10114000C80FD91FF701EDCFCE01DF91CF911F91CD
:101150000F91FF90EF900895DC01ED91FC910190CB
:10116000F081E02D09940F931F93CF93DF93EC014F
:101170006DE00E94AC088C016AE0CE010E94AC08D0
:10118000800F911FDF91CF911F910F9108950F93C1
:101190001F93CF93DF93EC010E9487088C01CE014F
:1011A0000E94B308800F911FDF91CF911F910F9183
:1011B000089570E09B01382BC9010895A1E21A2E11
:1011C000AA1BBB1BFD010DC0AA1FBB1FEE1FFF1FEB
:1011D000A217B307E407F50720F0A21BB30BE40B3B
:1011E000F50B661F771F881F991F1A9469F7609582
:1011F0007095809590959B01AC01BD01CF0108953C
:10120000EE0FFF1F0590F491E02D099410E0CAEC59
:10121000D0E004C0FE010E9402092296CC3CD10716
:06122000C9F7F894FFCFAE
:10122600000026068000010000000100000000FE0C
:1012360000D100A600AE00C100D00000000000E30F
:0C124600065F0865067E067006C1060003
:00000001FF
